{
  "contractName": "Spoortify",
  "abi": [
    {
      "inputs": [],
      "stateMutability": "nonpayable",
      "type": "constructor"
    },
    {
      "anonymous": false,
      "inputs": [
        {
          "indexed": true,
          "internalType": "address",
          "name": "_sender",
          "type": "address"
        },
        {
          "indexed": true,
          "internalType": "address",
          "name": "_owner",
          "type": "address"
        },
        {
          "indexed": false,
          "internalType": "uint256",
          "name": "_amount",
          "type": "uint256"
        }
      ],
      "name": "Buy",
      "type": "event"
    },
    {
      "anonymous": false,
      "inputs": [
        {
          "indexed": true,
          "internalType": "address",
          "name": "_sender",
          "type": "address"
        },
        {
          "indexed": false,
          "internalType": "uint256",
          "name": "_amount",
          "type": "uint256"
        }
      ],
      "name": "Deposit",
      "type": "event"
    },
    {
      "anonymous": false,
      "inputs": [
        {
          "indexed": false,
          "internalType": "address",
          "name": "account",
          "type": "address"
        }
      ],
      "name": "Paused",
      "type": "event"
    },
    {
      "anonymous": false,
      "inputs": [
        {
          "indexed": false,
          "internalType": "address",
          "name": "account",
          "type": "address"
        }
      ],
      "name": "Unpaused",
      "type": "event"
    },
    {
      "anonymous": false,
      "inputs": [
        {
          "indexed": true,
          "internalType": "address",
          "name": "_sender",
          "type": "address"
        },
        {
          "indexed": false,
          "internalType": "uint256",
          "name": "_amount",
          "type": "uint256"
        }
      ],
      "name": "Withdraw",
      "type": "event"
    },
    {
      "inputs": [],
      "name": "paused",
      "outputs": [
        {
          "internalType": "bool",
          "name": "",
          "type": "bool"
        }
      ],
      "stateMutability": "view",
      "type": "function",
      "constant": true
    },
    {
      "inputs": [
        {
          "internalType": "string",
          "name": "_playlistId",
          "type": "string"
        }
      ],
      "name": "isPaid",
      "outputs": [
        {
          "internalType": "bool",
          "name": "",
          "type": "bool"
        }
      ],
      "stateMutability": "view",
      "type": "function",
      "constant": true
    },
    {
      "inputs": [],
      "name": "deposit",
      "outputs": [],
      "stateMutability": "payable",
      "type": "function",
      "payable": true
    },
    {
      "inputs": [],
      "name": "getBalance",
      "outputs": [
        {
          "internalType": "uint256",
          "name": "",
          "type": "uint256"
        }
      ],
      "stateMutability": "view",
      "type": "function",
      "constant": true
    },
    {
      "inputs": [
        {
          "internalType": "uint256",
          "name": "_amount",
          "type": "uint256"
        }
      ],
      "name": "withdraw",
      "outputs": [],
      "stateMutability": "nonpayable",
      "type": "function"
    },
    {
      "inputs": [
        {
          "internalType": "address",
          "name": "_artist",
          "type": "address"
        },
        {
          "internalType": "string",
          "name": "_playlistId",
          "type": "string"
        },
        {
          "internalType": "uint256",
          "name": "_amount",
          "type": "uint256"
        }
      ],
      "name": "buy",
      "outputs": [],
      "stateMutability": "nonpayable",
      "type": "function"
    },
    {
      "inputs": [],
      "name": "pause",
      "outputs": [],
      "stateMutability": "nonpayable",
      "type": "function"
    },
    {
      "inputs": [],
      "name": "unpause",
      "outputs": [],
      "stateMutability": "nonpayable",
      "type": "function"
    }
  ],
  "bytecode": "0x608060405234801561001057600080fd5b506000805460ff191690556001805560048054600160a060020a0319163317905561082e806100406000396000f3fe60806040526004361061006e5760e060020a600035046312065fe081146100735780632e1a7d4d146100a35780633f4ba83a146100c55780635c975abb146100da5780638456cb59146100fe578063b1c46d2214610113578063d0e30db014610133578063d40c6aaa1461013b575b600080fd5b34801561007f57600080fd5b50336000908152600260205260409020546040519081526020015b60405180910390f35b3480156100af57600080fd5b506100c36100be3660046105d3565b61015b565b005b3480156100d157600080fd5b506100c3610239565b3480156100e657600080fd5b5060005460ff165b604051901515815260200161009a565b34801561010a57600080fd5b506100c3610270565b34801561011f57600080fd5b506100c361012e366004610692565b6102a5565b6100c36103b4565b34801561014757600080fd5b506100ee6101563660046106f6565b610417565b61016361044d565b61016b6104a9565b336000908152600260205260409020548111156101a65760405160e560020a62461bcd02815260040161019d90610732565b60405180910390fd5b33600090815260026020526040812080548392906101c590849061077a565b9091555050604051339082156108fc029083906000818181858888f193505050501580156101f7573d6000803e3d6000fd5b5060405181815233907f884edad9ce6fa2440d8a54cc123490eb96d2768479d49ff9c7366125a94243649060200160405180910390a261023660018055565b50565b600454600160a060020a031633146102665760405160e560020a62461bcd02815260040161019d90610793565b61026e6104f5565b565b600454600160a060020a0316331461029d5760405160e560020a62461bcd02815260040161019d90610793565b61026e610547565b6102ad6104a9565b336000908152600260205260409020548111156102df5760405160e560020a62461bcd02815260040161019d90610732565b33600090815260026020526040812080548392906102fe90849061077a565b9091555050600160a060020a0383166000908152600260205260408120805483929061032b9084906107b6565b909155505033600090815260036020526040908190209051600191906103529085906107c9565b90815260405160209181900382018120805460ff191693151593909317909255600454838352600160a060020a03169133917fd0c183be209f70036b50de16805d88249019e1288d7b77ef877710999c0d08e6910160405180910390a3505050565b6103bc6104a9565b33600090815260026020526040812080543492906103db9084906107b6565b909155505060405134815233907fe1fffcc4923d04b559f4d29a8bfc6cda04eb5b0d3c460751c2402c5c5cc9109c9060200160405180910390a2565b3360009081526003602052604080822090516104349084906107c9565b9081526040519081900360200190205460ff1692915050565b6002600154036104a25760405160e560020a62461bcd02815260206004820152601f60248201527f5265656e7472616e637947756172643a207265656e7472616e742063616c6c00604482015260640161019d565b6002600155565b60005460ff161561026e5760405160e560020a62461bcd0281526020600482015260106024820152608260020a6f14185d5cd8589b194e881c185d5cd95902604482015260640161019d565b6104fd610584565b6000805460ff191690557f5db9ee0a495bf2e6ff9c91a7834c1ba4fdd244a5e8aa4e537bd38aeae4b073aa335b604051600160a060020a03909116815260200160405180910390a1565b61054f6104a9565b6000805460ff191660011790557f62e78cea01bee320cd4e420270b5ea74000d11b0c9f74754ebdbfc544b05a25861052a3390565b60005460ff1661026e5760405160e560020a62461bcd0281526020600482015260146024820152606260020a7314185d5cd8589b194e881b9bdd081c185d5cd95902604482015260640161019d565b6000602082840312156105e557600080fd5b5035919050565b60e060020a634e487b710260009081526041600452602490fd5b600082601f83011261061757600080fd5b81356001604060020a0380821115610631576106316105ec565b604051601f8301601f19908116603f01168101908282118183101715610659576106596105ec565b8160405283815286602085880101111561067257600080fd5b836020870160208301376000602085830101528094505050505092915050565b6000806000606084860312156106a757600080fd5b8335600160a060020a03811681146106be57600080fd5b925060208401356001604060020a038111156106d957600080fd5b6106e586828701610606565b925050604084013590509250925092565b60006020828403121561070857600080fd5b81356001604060020a0381111561071e57600080fd5b61072a84828501610606565b949350505050565b6020808252601190820152607a60020a7010985b185b98d9480f0817d85b5bdd5b9d02604082015260600190565b60e060020a634e487b710260009081526011600452602490fd5b8181038181111561078d5761078d610760565b92915050565b602080825260069082015260d160020a6510b7bbb732b902604082015260600190565b8082018082111561078d5761078d610760565b6000825160005b818110156107ea57602081860181015185830152016107d0565b50600092019182525091905056fea264697066735822122091c489b19ad47b571b4891a2580a7046884017171c31d0b16d98bda42ef1915f64736f6c63430008110033",
  "immutableReferences": {},
  "source": "// SPDX-License-Identifier: MIT\r\npragma solidity ^0.8.0;\r\nimport \"@openzeppelin/contracts/security/Pausable.sol\";\r\nimport \"@openzeppelin/contracts/security/ReentrancyGuard.sol\";\r\nimport \"./interfaces/IUser.sol\";\r\nimport \"./interfaces/ISpoortify.sol\";\r\n\r\ncontract Spoortify is IUser, ISpoortify, Pausable, ReentrancyGuard {\r\n\r\n    mapping (address => uint256) private _userBalances;\r\n    mapping (address => mapping(string => bool)) private _userPaidPlaylists;\r\n    address private _owner;\r\n\r\n    constructor() Pausable() ReentrancyGuard() {\r\n        _owner = msg.sender;\r\n    }\r\n    modifier onlyOwner() {\r\n        require(msg.sender == _owner, \"!owner\");\r\n        _;\r\n    }\r\n    function isPaid(string memory _playlistId) external view returns (bool) {\r\n        return  _userPaidPlaylists[msg.sender][_playlistId];\r\n    }\r\n\r\n    function deposit() external payable whenNotPaused{\r\n        _userBalances[msg.sender] += msg.value;\r\n        emit Deposit(msg.sender, msg.value);\r\n    }\r\n\r\n    function getBalance() external view returns(uint256) {\r\n        return _userBalances[msg.sender];\r\n    }\r\n\r\n    function withdraw(uint256 _amount) external nonReentrant whenNotPaused {\r\n        require(_userBalances[msg.sender] >= _amount, \"Balance < _amount\");\r\n        _userBalances[msg.sender] -= _amount;\r\n        payable(msg.sender).transfer(_amount);\r\n        emit Withdraw(msg.sender, _amount);\r\n    }\r\n\r\n    function buy(address _artist, string memory _playlistId, uint256 _amount) external whenNotPaused {\r\n        require(_userBalances[msg.sender] >= _amount, \"Balance < _amount\");\r\n        _userBalances[msg.sender] -= _amount;\r\n        _userBalances[_artist] += _amount;\r\n        _userPaidPlaylists[msg.sender][_playlistId] = true;\r\n        emit Buy(msg.sender, _owner, _amount);\r\n    }\r\n\r\n    function pause() external onlyOwner {\r\n        _pause();\r\n    }\r\n    function unpause() external onlyOwner {\r\n        _unpause();\r\n    }\r\n}",
  "sourcePath": "E:\\Startup\\Blockchain\\Zoardev\\apps\\spoortify\\contracts\\Spoortify.sol",
  "compiler": {
    "name": "solc",
    "version": "0.8.17+commit.8df45f5f.Emscripten.clang"
  },
  "schemaVersion": "3.4.8",
  "updatedAt": "2022-11-20T11:09:45.144Z",
  "networkType": "ethereum",
  "devdoc": {
    "kind": "dev",
    "methods": {
      "paused()": {
        "details": "Returns true if the contract is paused, and false otherwise."
      }
    },
    "version": 1
  },
  "userdoc": {
    "kind": "user",
    "methods": {},
    "version": 1
  }
}